:020000020000FC
:020000000AC034
:040004005FEF1895FD
:10000A007FB62F5F341F641E7FBE1895442766276C
:10001A00772780ED87BB8FE788BB80E281BB8FEDB6
:10002A008DBF6BD1E4D0EDD01AD1F2D07894D0E064
:10003A00C0E6C0938000D0E0C2E8C093A2009FD07F
:10004A00A8D0C3D067D109F020D072D109F039D035
:10005A00562309F001D0F6CF552788E3872B02D122
:10006A008FEF00D18F938FEFFDD08F9306B380E18E
:10007A006FD157D1872F5FD154D18F919F9164D17E
:10008A0050D1802F58D14FD10895C091800040D1CE
:10009A00883071F08F3761F0C03891F045D189937B
:1000AA00C09380008D3061F4C0E6C09380000CC01C
:1000BA00C03631F0CA95C09380002FD132D12DD1EC
:1000CA000895C091A200089580916000813608F0D9
:1000DA008F7D823511F43DD023C0843411F441D090
:1000EA001FC0823411F448D01BC08A3511F447D09E
:1000FA0017C0893411F44DD013C0873411F465D078
:10010A000FC0833411F451D00BC0883411F08F33EF
:10011A0021F4F3E0ECE721D1089580E4F4E0E6E18C
:10012A008032B0F08F9314D1FCD08F91803219F4C1
:10013A00F4E0E2E20CC0883250F08C3220F08034D5
:10014A0030F48F2F05D18E2F03D1EDD0089505D12C
:10015A00089588E0872B86D08FEF84D0E82F88E235
:10016A00089588E3872B7ED08FEF7CD0F82F8FEF0E
:10017A0079D0E82F8CE20895E6B388E208958FEFEC
:10018A0071D08FEF6FD08FEF6DD08FEF6BD080E291
:10019A00089580E2872B66D081E064D080E1872BC6
:1001AA0061D082E45FD080E208958091610080335B
:1001BA0031F0813321F0823311F0833311F481530A
:1001CA00782F7395737080E208958091610080336F
:1001DA0021F0813339F0662329F06627F4E0EEE254
:1001EA0081E208956FEFF4E0E6E281E208958D9AE4
:1001FA0083E086BF85958CBF83E380BF89E083BF98
:10020A00089585B7837F886085BF80E88BBF08958E
:10021A004FBD89B78779806889BF9FB7F8944EBD6B
:10022A0080E888BF80E18CBD4DBD22273327662434
:10023A0081E08EBD9FBF0895F894ACB5BDB5E901C4
:10024A00E62D7894129618F00000000002C021965C
:10025A00E41FA650B40BC40BD40BE40B089588E139
:10026A008DB9089590E9C798C49A8FB980E48EB978
:10027A0088B38F7E88BB00000000892788BB0000F6
:10028A000000892788BB00000000892788BB00007E
:10029A000000892788BB00000000892788BB00006E
:1002AA000000892788BB00000000892788BB00005E
:1002BA000000892788BB00000000892788BB00004E
:1002CA000000892788BB00000000892788BB00003E
:1002DA000000892788BB00000000892788BB00002E
:1002EA000000892788BB00000000892788BB00001E
:1002FA0000008F7788BB8FB108958FE390E092B9A1
:10030A0089B986E083B988E18AB9089503D0F1F3FF
:10031A008CB108958BB18078089588E005C08CE28D
:10032A0003C080E201C08AE05D9BFECF8CB90895CC
:10033A008BB1807208958F938F708A3008F0895F2D
:10034A00805DF2DF8F9108958F93892F01D08F916D
:10035A008295F1DF8295EFDF08958591882311F068
:10036A00E3DFFBCF08958191882311F0DDDFFBCF16
:10037A000895314620696E666F20636F6D6D616EF8
:10038A0064733A0D3146205A204144435350492060
:10039A0072657365740D31462049204144432069D2
:1003AA006E69742F63616C6962726174650D31469E
:1003BA002042206269747320726561642028504962
:1003CA004E42290D314620442064617461207265D1
:1003DA006164200D314620522041444320726561F8
:1003EA006479200D31462043203C302E2E333E20A6
:1003FA006368616E6E656C0D31462047205B303153
:10040A005D20676F2F73746F700D00004261642066
:10041A00636F6D6D616E640D4F4B0D007374617285
:0A042A00740D000073746F700D0074
:00000001FF
